{
  "transactions": [
    {
      "hash": "0xad851a2438d75fe1ece478f0adacd535b0b40f7f6f4b4e9b11f7e465e3ef06a4",
      "transactionType": "CALL",
      "contractName": null,
      "contractAddress": "0xb1e25689d55734fd3fffc939c4c3eb52dff8a794",
      "function": "mintTo(address,uint256)",
      "arguments": [
        "0xf39Fd6e51aad88F6F4ce6aB8827279cffFb92266",
        "50000000000000000000"
      ],
      "transaction": {
        "from": "0xf39fd6e51aad88f6f4ce6ab8827279cfffb92266",
        "to": "0xb1e25689d55734fd3fffc939c4c3eb52dff8a794",
        "gas": "0x17009",
        "value": "0x0",
        "input": "0x449a52f8000000000000000000000000f39fd6e51aad88f6f4ce6ab8827279cfffb92266000000000000000000000000000000000000000000000002b5e3af16b1880000",
        "nonce": "0x2",
        "chainId": "0x539"
      },
      "additionalContracts": [],
      "isFixedGasLimit": false
    }
  ],
  "receipts": [
    {
      "status": "0x1",
      "cumulativeGasUsed": "0x10a74",
      "logs": [
        {
          "address": "0xb1e25689d55734fd3fffc939c4c3eb52dff8a794",
          "topics": [
            "0xddf252ad1be2c89b69c2b068fc378daa952ba7f163c4a11628f55a4df523b3ef",
            "0x0000000000000000000000000000000000000000000000000000000000000000",
            "0x000000000000000000000000f39fd6e51aad88f6f4ce6ab8827279cfffb92266"
          ],
          "data": "0x000000000000000000000000000000000000000000000002b5e3af16b1880000",
          "blockHash": "0xa290878fd039ae3566cc516c0907b7ca439802dddb06cd80b80749013a9b1755",
          "blockNumber": "0x18b",
          "blockTimestamp": "0x67fb5b3b",
          "transactionHash": "0xad851a2438d75fe1ece478f0adacd535b0b40f7f6f4b4e9b11f7e465e3ef06a4",
          "transactionIndex": "0x0",
          "logIndex": "0x0",
          "removed": false
        }
      ],
      "logsBloom": "0x00000000000000000000000000000000000000000000000000000000000000000000000000000000000000000000000000000000000000000000000000000000000800000000000000000008000000000000000000000000000000000000000000000000020000000000000100000800000000000000000000000010000000000000000000000000000000000000000001000000000000000000000000000000000000000000000000000000000000000000000000000000000000000000000000000002000000200000000000000000000000002000000000000000000020000004000000000000000000000000000000000000000000000000000000000000",
      "type": "0x2",
      "transactionHash": "0xad851a2438d75fe1ece478f0adacd535b0b40f7f6f4b4e9b11f7e465e3ef06a4",
      "transactionIndex": "0x0",
      "blockHash": "0xa290878fd039ae3566cc516c0907b7ca439802dddb06cd80b80749013a9b1755",
      "blockNumber": "0x18b",
      "gasUsed": "0x10a74",
      "effectiveGasPrice": "0x8",
      "blobGasPrice": "0x1",
      "from": "0xf39fd6e51aad88f6f4ce6ab8827279cfffb92266",
      "to": "0xb1e25689d55734fd3fffc939c4c3eb52dff8a794",
      "contractAddress": null
    }
  ],
  "libraries": [],
  "pending": [],
  "returns": {},
  "timestamp": 1744526140,
  "chain": 1337,
  "commit": "504ee12"
}